:100000000C942A000C9447000C9447000C94470071
:100010000C9447000C9447000C9447000C94C805BE
:100020000C9447000C9447000C94C70F0C94A00F3D
:100030000C9447000C9447000C9447000C94470024
:100040000C9447000C9447000C9447000C94470014
:100050000C94470011241FBECFE5D8E0DEBFCDBF12
:1000600011E0A0E6B0E0ECE3F3E202C005900D92EF
:10007000A030B107D9F725E0A0E0B1E001C01D92A2
:10008000A238B207E1F70E948D020C949C110C94E7
:100090000000CF93DF9300D000D0CDB7DEB7198238
:1000A0001A821B821C8220E044E650E060E070E08F
:1000B00080918005909181050E94A8078130E1F52B
:1000C000809101018823C1F180E00E94E60EBC010D
:1000D00080E090E00E942C1020E030E04AEF53E4F2
:1000E0000E94971020E030E040E85AE30E94971009
:1000F00069837A838B839C8320E044E650E0BE01D1
:100100006F5F7F4F80917E0590917F050E9416075B
:1001100061E080E00E94840E86E690E00E94710E0D
:1001200061E085E00E94840E69817A818B819C81E7
:100130000E94FD0F0E948C0E20E040E050E060E045
:1001400070E080918005909181050E94160784E6F9
:1001500090E00E949C0BA7CFCF93DF931F92CDB767
:10016000DEB7198220E044E650E060E070E0809164
:100170008005909181050E94A807813071F50E9449
:10018000F90FE091000191E09E0F90930001F0E0E3
:10019000E658FA4F8083943000F11092000144E059
:1001A00050E060E670E08AE795E00E948611892BB6
:1001B00019F481E0898301C0198220E044E650E00F
:1001C000BE016F5F7F4F80917805909179050E9405
:1001D000160780E090E00E94370C20E040E050E0FD
:1001E00060E070E080918005909181050E94160783
:1001F000B9CFCF93DF931F92CDB7DEB720E044E6AF
:1002000050E060E070E080918005909181050E944F
:10021000A807813099F720E044E650E0BE016F5F07
:100220007F4F80917805909179050E94A8078130D1
:1002300041F58981813081F48093010141E060E0E2
:1002400082E00E94F70E60E080E00E94840E8CE65F
:1002500090E00E94710E15C060E080E00E94840E64
:1002600086E790E00E94710E61E080E00E94840EBB
:1002700086E890E00E94710E41E061E082E00E9419
:10028000F70E20E040E050E060E070E080918005F3
:10029000909181050E94160780E090E00E94370C43
:1002A000ADCF20E044E650E060E070E08091800552
:1002B000909181050E94A807813009F05AC0809171
:1002C0000101882309F455C081E00E94E60E9C01DB
:1002D000220F331F220F331F820F931F6FEF73E024
:1002E0000E9450116430710598F060E088E00E942F
:1002F000840E86E990E00E94710E40E066E082E0A4
:100300000E94F70E40E067E082E00E94F70E31C0E5
:1003100080E090E00E942C1020E030E040EC5FE3B1
:100320000E94921018169CF460E088E00E94840EEF
:100330008FE990E00E94710E41E066E082E00E9449
:10034000F70E40E067E082E00E94F70E12C060E026
:1003500088E00E94840E88EA90E00E94710E41E0DD
:1003600066E082E00E94F70E41E067E082E00E94D2
:10037000F70E20E040E050E060E070E08091800502
:10038000909181050E94160784E690E00E949C0BE4
:1003900088CFCF93DF9300D000D0CDB7DEB71982DE
:1003A0001A821B821C8220E044E650E060E070E08C
:1003B00080918005909181050E94A807813009F005
:1003C0009CC080910101882309F497C020E044E695
:1003D00050E0BE016F5F7F4F80917E0590917F0559
:1003E0000E94A807C980DA80EB80FC8020E030E022
:1003F0004CE052E4C701B6010E9492101816D4F4E2
:1004000084E690E00E947E0F61E087E00E94840E07
:1004100081EB90E00E94710E61E08CE00E94840EFE
:1004200064E670E080E090E00E948C0E85E20E941D
:100430001E0E63C020E030E040EF51E4C701B6017A
:100440000E9492101816DCF486E490E00E947E0F61
:1004500061E087E00E94840E81EB90E00E94710EC3
:1004600061E08CE00E94840E66E470E080E090E041
:100470000E948C0E87EB90E00E94710E3EC020E03F
:1004800030E048EC51E4C701B6010E949210181602
:10049000DCF48EE190E00E947E0F61E087E00E9434
:1004A000840E81EB90E00E94710E61E08CE00E946E
:1004B000840E6EE170E080E090E00E948C0E87EB8D
:1004C00090E00E94710E19C080E090E00E947E0FC3
:1004D00061E087E00E94840E81EB90E00E94710E43
:1004E00061E08CE00E94840E60E070E0CB010E942D
:1004F0008C0E8AEB90E00E94710E20E040E050E00C
:1005000060E070E080918005909181050E9416075F
:1005100084E690E00E949C0B46CFEF92FF920F93EF
:1005200060EF80E00E946A0F6FEF81E00E946A0F27
:100530006FEF82E00E946A0F60EF83E00E946A0F13
:10054000E12CF12C06E020E030E044E650E06EEBD8
:1005500070E089E490E00E94EC0905E020E030E0E2
:1005600044E650E063EC70E089EF90E00E94EC0913
:1005700007E020E030E044E650E06AEC70E08CEA0E
:1005800090E00E94EC0904E020E030E044E650E016
:1005900063ED70E089EC91E00E94EC0903E020E05B
:1005A00030E044E650E067ED70E081E591E00E94C4
:1005B000EC090E947A0F0E94EE0F0E94520E0E94D8
:1005C000D60E43E060E081E00E94EC069093810546
:1005D0008093800520E040E050E060E070E00E9401
:1005E000160740E064E081E00E94EC0690937F05EE
:1005F00080937E0540E061E081E00E94EC069093EC
:1006000079058093780560E080E00E94840E8BED90
:1006100090E00E94710E61E080E00E94840E8AEEFC
:1006200090E00E94710E0E94400A80E090E00F91DD
:10063000FF90EF900895E7E0F1E08CE091E0918386
:10064000808313821282E3E0F1E087EE93E09383EC
:10065000828311821082ABE0B1E014969C938E935A
:1006600013971296FC93EE93119708950F931F938F
:10067000CF93DF93EC010E946A0A809102018111FD
:1006800005C00E941B0381E080930201209709F0BE
:100690002496CE010197863E934008F056C0E09123
:1006A0000701F0910801A7E0B1E002C0DF01FC0101
:1006B000828193818C179D0720F48081918100971E
:1006C000A9F781E0E330F80709F442C00D911C91CD
:1006D00011970C5F1F4F808191818D939C93828134
:1006E00093818C1B9D0B8930910510F1AF014C0F4C
:1006F0005D1FDA0113969C938E931297D383C28366
:1007000012962D913C91139767E071E001C0BD01F5
:10071000EB01A881B98112968D919C911397821754
:100720009307A8F3EA01B983A883DB014D935C9397
:10073000228133818091640090916500821B930B2C
:10074000909365008093640005C000E010E002C053
:1007500000E010E00E942A0BC801DF91CF911F91A9
:100760000F9108950F931F93CF93DF93009741F15B
:10077000EC018C01045011090E946A0AF8014281BF
:100780005381A7E0B1E001C0DF01ED91FC91119729
:100790002281338124173507B8F32497F983E8833E
:1007A0000D931C938A819B81209164003091650098
:1007B000820F931F90936500809364000E942A0B20
:1007C000DF91CF911F910F910895FC0103969283C1
:1007D00081832FEF3FEF3483238396838583908734
:1007E000878310820895FC01118610860895CF93A7
:1007F000DF939C01FB01DC011196CD91DC911297F6
:10080000D383C2838C819D81958384838C819D81D8
:10081000DC0113967C936E9312977D836C833187F2
:100820002087F90180818F5F8083DF91CF910895C8
:10083000CF93DF93EB01488159814F3F2FEF520750
:1008400021F4FC01A781B0850DC0DC01139601C025
:10085000DF011296ED91FC911397208131814217AF
:100860005307B0F71296ED91FC911397FB83EA833F
:10087000D583C483BD83AC831396DC93CE93129748
:1008800099878887FC0120812F5F2083DF91CF919A
:100890000895CF93DF93FC01A085B185C281D381F8
:1008A000848195819D838C83C481D581828193814C
:1008B0009B838A8311968D919C911297E817F90773
:1008C00031F48481958112969C938E9311971186B1
:1008D00010868C9181508C93DF91CF9108951BBC31
:1008E00089EF8ABD8BE08EBD89B7806189BF08958D
:1008F00031E1FC013083319722E220833197A3E379
:10090000A08331976083319770833197108231973C
:1009100060E8608331971082319762E0608331979D
:1009200063E06083319764E06083319765E06083C2
:10093000319766E06083319767E06083319768E0C4
:100940006083319769E06083319760E1608331971C
:100950003083319732E13083319733E130833197FF
:1009600034E13083319735E13083319736E130839C
:10097000319737E13083319738E13083319739E16E
:100980003083319730E23083319731E230833197D1
:100990002083319723E2208331974083319750831E
:1009A000319726E22083319727E22083319728E28E
:1009B0002083319729E22083319720E320833197E8
:1009C00021E32083869708950E946F04A091720509
:1009D000B0917305CD91CDBFDD91DEBFFF91EF9159
:1009E000DF91CF91BF91AF919F918F917F916F9147
:1009F0005F914F913F912F911F910F91FF90EF9039
:100A0000DF90CF90BF90AF909F908F907F906F902E
:100A10005F904F903F902F901F900F900FBE0F90C0
:100A2000089581E008950F920FB6F8940F921F92E7
:100A300011242F923F924F925F926F927F928F92EA
:100A40009F92AF92BF92CF92DF92EF92FF920F935D
:100A50001F932F933F934F935F936F937F938F9346
:100A60009F93AF93BF93CF93DF93EF93FF93A091A7
:100A70007205B09173050DB60D920EB60D920E94DF
:100A8000E30BA0917205B0917305CD91CDBFDD91BF
:100A9000DEBFFF91EF91DF91CF91BF91AF919F9119
:100AA0008F917F916F915F914F913F912F911F9106
:100AB0000F91FF90EF90DF90CF90BF90AF909F90FD
:100AC0008F907F906F905F904F903F902F901F90EE
:100AD0000F900FBE0F9008950F920FB6F8940F92DB
:100AE0001F9211242F923F924F925F926F927F92AA
:100AF0008F929F92AF92BF92CF92DF92EF92FF922E
:100B00000F931F932F933F934F935F936F937F9315
:100B10008F939F93AF93BF93CF93DF93EF93FF9305
:100B2000A0917205B09173050DB60D920EB60D929F
:100B30000E94700A81110E94E30BA0917205B0918E
:100B40007305CD91CDBFDD91DEBFFF91EF91DF91B8
:100B5000CF91BF91AF919F918F917F916F915F9155
:100B60004F913F912F911F910F91FF90EF90DF9048
:100B7000CF90BF90AF909F908F907F906F905F903D
:100B80004F903F902F901F900F900FBE0F900895A1
:100B90000E946C0518950FB6F8940F92FC01828D97
:100BA000811102C081E001C080E00F900FBE089566
:100BB0000FB6F8940F92FC01228D838D281302C08A
:100BC00081E001C080E00F900FBE08950F931F9346
:100BD000CF93DF93EC01042F1A8D4C8D41110CC083
:100BE00088819981892B09F042C08A819B810E946A
:100BF000890D1B821A8242C0011117C050E08C81FE
:100C00009D810E9493112C8D8C819D81820F911D5D
:100C10009D838C832A813B818217930750F18881C1
:100C200099819D838C8380E029C050E08E819F81D3
:100C30000E9493118C8D90E09195819591092E8160
:100C40003F81280F391F3F832E8348815981241704
:100C5000350730F42A813B81820F931F9F838E8357
:100C6000023049F4112349F0115080E007C080E0C0
:100C700005C080E003C080E001C080E01F5F1A8FE4
:100C8000DF91CF911F910F910895FC01448D442372
:100C9000A9F050E026813781240F351F3783268342
:100CA000828193812817390720F080819181978371
:100CB0008683CB01668177810E94931108951F93EB
:100CC000CF93DF93EC010FB6F8940F921E8D0BC0FB
:100CD0008989882351F0CE0141960E94970C811199
:100CE0000E94230D115011169CF38FEF8E8F0F90E1
:100CF0000FBE0FB6F8940F921D8D0BC08885882308
:100D000051F0CE0108960E94970C81110E94230D8C
:100D1000115011169CF38FEF8D8F0F900FBEDF9146
:100D2000CF911F910895CF93DF93EC010FB6F89404
:100D30000F92E881F9818B8D90E02C8D30E0829FBD
:100D4000A001839F500D929F500D11244E0F5F1FE5
:100D50005B834A831A8EFD83EC830197289FA00151
:100D6000299F500D389F500D1124CF01840F951FDE
:100D70009F838E838FEF8D8F8E8F61110CC088853E
:100D8000882389F0CE0108960E94970C882359F099
:100D90000E94130508C0CE0108960E94E503CE010B
:100DA00041960E94E5030F900FBE81E0DF91CF9145
:100DB00008950F931F93F801611103C011830083FD
:100DC00002C051834083838F648F61E0CF010E9412
:100DD00093061F910F910895DF92EF92FF920F9368
:100DE0001F93CF93DF93E82EF62ED42E662321F0A7
:100DF000869FC001112402C080E090E04F960E94BF
:100E00003603EC01009749F08C012D2DAC01415EB9
:100E10005F4F6F2D8E2D0E94D906CE01DF91CF91AD
:100E20001F910F91FF90EF90DF900895CF92DF9286
:100E3000EF92FF920F931F93CF93DF9300D000D0D8
:100E40001F92CDB7DEB78C017B015D834C83C22E30
:100E5000D12C0FB6F8940F92F801928D838D9817CC
:100E600018F0F2E0CF1219C04C2DB701C8010E9452
:100E7000E605F8019189992349F0C80141960E943D
:100E8000970C882331F00E94130503C081110E9442
:100E900013050F900FBE81E04DC08C819D81892B81
:100EA00021F40F900FBE80E045C0D11006C0CE01E6
:100EB00001960E94DF0CDD24D3940F900FBE0E9498
:100EC0006A0A0FB6F8940F92F801858D8F3F09F4E6
:100ED000158EF801868D8F3F09F4168E0F900FBE88
:100EE000BE016C5F7F4FCE0101960E94EA0C81111A
:100EF0001BC0C8010E94D805882381F06C817D81C8
:100F0000C80108960E94850CC8010E945F060E94D5
:100F10002A0B81119ECF0E9413059BCFC8010E940E
:100F20005F060E942A0B95CFC8010E945F060E94AF
:100F30002A0B80E00F900F900F900F900F90DF9191
:100F4000CF911F910F91FF90EF90DF90CF90089578
:100F50008F929F92BF92CF92DF92EF92FF920F9368
:100F60001F93CF93DF9300D000D01F92CDB7DEB791
:100F70008C016B015D834C83B22EE12C0FB6F8948B
:100F80000F92F801F28CFF2091F186809780B601D4
:100F9000C8010E944506B11019C0FA94F801F28EFA
:100FA00080819181892B29F40E94C90DF8019383D6
:100FB0008283F80180858823B1F0C80108960E94D9
:100FC000970C882381F00E9413050DC0F8019782C9
:100FD00086828189882339F0C80141960E94970C46
:100FE00081110E9413050F900FBE81E061C08C81BA
:100FF0009D81892B21F40F900FBE80E059C0E11034
:1010000006C0CE0101960E94DF0CEE24E3940F90FF
:101010000FBE0E946A0A0FB6F8940F92F801858DF0
:101020008F3F09F4158EF801868D8F3F09F4168ED7
:101030000F900FBEBE016C5F7F4FCE0101960E94E4
:10104000EA0C811129C0C8010E94CB058823F1F068
:10105000F80180819181892B49F40FB6F8940F92A1
:10106000828193810E94270D0F900FBE6C817D813C
:10107000C80141960E94850CC8010E945F060E942B
:101080002A0B81117BCF0E94130578CFC8010E94E3
:101090005F060E942A0B72CFC8010E945F060E9461
:1010A0002A0BC8010E94CB05882309F467CF80E092
:1010B0000F900F900F900F900F90DF91CF911F9195
:1010C0000F91FF90EF90DF90CF90BF909F908F9007
:1010D0000895E0911F05F09120058081811107C0DE
:1010E0008FEF9FEF9093F7048093F6040895E091BB
:1010F0001F05F09120050580F681E02D0680F7811F
:10110000E02D828193819093F7048093F6040895F3
:10111000CF93DF93EC018F89988D0E94B203CE01AB
:101120000E94B203DF91CF9108956F927F928F92C8
:101130009F92AF92BF92CF92DF92EF920F931F9345
:10114000CF93DF93CDB7DEB74C01F5018789908D42
:10115000215031093C01620E731E20E00FC0822F26
:1011600090E0FB01E80FF91F3081D501A80FB91FEE
:1011700059963C938081882319F02F5F283078F3AB
:10118000F50110A2F6E0FE1520F40F2EF6E0EF2E8A
:10119000F02DF501E68AE1A212A2C50102960E9495
:1011A000F303C5010C960E94F303F501B186A086F6
:1011B00087E090E08E19910995878487B38AA28A87
:1011C00013A214A215A216A217A2A801B401C3016A
:1011D0000E947804F50191838083C114D10419F031
:1011E000F601B182A082DF91CF911F910F91EF9014
:1011F000DF90CF90BF90AF909F908F907F906F9037
:101200000895CF93C0E010C08C2F90E09C01220F76
:10121000331F220F331F220F331F820F931F8D5C4A
:101220009A4F0E94E503CF5FC73070F38AE295E0E2
:101230000E94E50381E295E00E94E50384E195E0E8
:101240000E94E5038BE095E00E94E50381E095E0D4
:101250000E94E5038AE295E09093200580931F05A4
:1012600081E295E090931E0580931D05CF9108952E
:10127000CF93DF93EC010FB6F8940F9280910005A5
:101280008F5F809300058091720590917305892B83
:1012900059F4D0937305C093720580910005813095
:1012A00099F40E94010910C08091FC0481110CC0C6
:1012B000E0917205F091730596898E89891720F067
:1012C000D0937305C09372058091F8048F5F80936B
:1012D000F8048E899091FD04981710F48093FD0412
:1012E00090E09C01220F331F220F331F220F331F68
:1012F000820F931FBE016E5F7F4F8D5C9A4F0E94DD
:10130000F7030F900FBE8091FC04882351F0E09109
:101310007205F091730596898E89981710F40E94D2
:101320001305DF91CF910895FF920F931F93CF93F1
:10133000DF93EC01F62E0091FE041091FF048091E2
:1013400072059091730502960E944904CF3F8FEF7A
:10135000D80769F4FF2059F0609172057091730508
:101360006E5F7F4F81E095E00E94F7032FC0C00FB2
:10137000D11FE0917205F0917305D383C283C0172A
:10138000D10768F4609172057091730580911D0515
:1013900090911E056E5F7F4F0E94180417C06091E8
:1013A00072057091730580911F05909120056E5F05
:1013B0007F4F0E9418048091F6049091F704C8179B
:1013C000D90720F4D093F704C093F604DF91CF91AE
:1013D0001F910F91FF9008952F923F924F925F922D
:1013E0006F927F928F929F92AF92BF92CF92DF9235
:1013F000EF92FF920F931F93CF93DF933C011B015A
:101400005A012901CA010E9436036C01892B71F02F
:1014100088E290E00E943603EC01892B19F0D88E07
:10142000CF8A06C0C6010E94B20302C0C0E0D0E06D
:10143000209791F0950140E050E0812C912C5E01C5
:101440006701E02E8201B101C3010E949508CE011F
:101450000E94380981E001C08FEFDF91CF911F9189
:101460000F91FF90EF90DF90CF90BF90AF909F9043
:101470008F907F906F905F904F903F902F90089546
:10148000EF92FF920F930F2EF4EFEF2EF4E0FF2E6A
:10149000F02D00E020E030E040E550E06AEF70E041
:1014A00080EE9BE00E94EC09813081F4F8948FEF8C
:1014B0009FEF9093F7048093F60481E08093FC04FF
:1014C0001092FF041092FE040E94E4040F91FF901A
:1014D000EF9008958091F3048F5F8093F304089553
:1014E000DF92EF92FF920F931F93CF93DF93809140
:1014F000F304811197C0E090FE04F090FF048FEF99
:10150000E81AF80AF092FF04E092FE04E114F104F4
:10151000B9F480911F059091200520911D0530910F
:101520001E053093200520931F0590931E05809380
:101530001D058091F9048F5F8093F9040E9469086A
:101540008091F6049091F704E816F90628F4D12C5E
:1015500053C0DD24D39401C0D12CE0911F05F0913C
:1015600020058081811107C08FEF9FEF9093F704D2
:101570008093F60441C0E0911F05F091200505809D
:10158000F681E02DC681D7818A819B81E816F90614
:1015900028F49093F7048093F6042EC08E010E5F1A
:1015A0001F4FC8010E9449048C899D89892B21F015
:1015B000CE010C960E9449048E899091FD049817E3
:1015C00010F48093FD0490E09C01220F331F220F42
:1015D000331F220F331F820F931FB8018D5C9A4F68
:1015E0000E94F7039E89E0917205F0917305868948
:1015F000981708F0AECFB1CFE0917205F091730566
:10160000868990E0FC01EE0FFF1FEE0FFF1FEE0F2B
:10161000FF1F8E0F9F1FFC01ED5CFA4F808182300F
:1016200040F409C08091FB048F5F8093FB04D12CB0
:1016300002C0DD24D3948091FA04882311F0DD24C4
:10164000D3948D2DDF91CF911F910F91FF90EF904B
:10165000DF9008950F931F93CF93DF930FB6F89405
:101660000F928091F30481508093F3048091F304EE
:10167000811158C080910005811133C056C0E0919E
:101680001905F0911A05C681D781CE010C960E94EA
:1016900049048E010E5F1F4FC8010E9449048E89C4
:1016A0009091FD04981710F48093FD0490E09C0144
:1016B000220F331F220F331F220F331F820F931F5E
:1016C000B8018D5C9A4F0E94F7039E89E0917205E4
:1016D000F09173058689981730F081E08093FA04C1
:1016E00002C0C0E0D0E0809114058111C8CFCD2B9D
:1016F00011F00E946908C091FB04CC2359F00E94AC
:10170000700A882319F081E08093FA04C150B9F778
:101710001092FB048091FA04882331F00E94130593
:1017200081E003C080E001C080E00F900FBEDF9138
:10173000CF911F910F910895CF93DF93EC01892BE7
:1017400049F00E946A0A60E0CE010E9494090E945A
:101750002A0B01C080E0811102C00E941305DF91B5
:10176000CF910895CF93DF9324C00E946A0AC0915D
:101770000B050E942A0BCC23E1F00FB6F8940F92D0
:10178000E0911005F0911105C681D781CE01029636
:101790000E9449048091000581508093000580914A
:1017A0000A05815080930A050F900FBECE010E945A
:1017B000880880910A058111D8CFDF91CF910895D3
:1017C0000E94B20BFDCF8091F304882321F081E0C9
:1017D0008093FA0408951092FA042091FD0401C048
:1017E0002150822F90E0FC01EE0FFF1FEE0FFF1F34
:1017F000EE0FFF1FE80FF91FED5CFA4F3081332326
:1018000079F3AC01440F551F440F551F440F551F6A
:10181000480F591FDF010180F281E02D0280F38122
:10182000E02D1296FC93EE9311974A5C5A4FE41701
:10183000F50729F442815381FD0152834183FC0164
:10184000EE0FFF1FEE0FFF1FEE0FFF1F8E0F9F1FEC
:10185000FC01ED5CFA4F0180F281E02D86819781D9
:1018600090937305809372052093FD0408950F9360
:101870001F93CF93DF93EC010FB6F8940F92892B4F
:1018800021F4C0917205D09173058E010E5F1F4F38
:10189000C8010E9449048C899D89892B21F0CE01C1
:1018A0000C960E944904B80181E095E00E94F7037C
:1018B0000F900FBE8091FC04882339F00FB6F89486
:1018C0000F920E9469080F900FBE8091720590914F
:1018D0007305C817D907A1F48091FC04882319F077
:1018E0000E9413050DC09091010580910005981389
:1018F00005C0109273051092720502C00E94E30B9E
:10190000DF91CF911F910F910895CF93DF93EB015A
:101910006091720570917305645F7F4F0E94180497
:1019200061E0CE010E949409DF91CF9108950F9359
:101930001F93CF93DF93DC011596ED91FC911697E1
:10194000C681D7818E01045F1F4FC8010E944904E0
:101950008091F30481111CC00A501109C8010E9432
:1019600049048E899091FD04981710F48093FD042A
:1019700090E09C01220F331F220F331F220F331FD1
:10198000820F931FB8018D5C9A4F0E94F70305C028
:10199000B80184E195E00E94F7039E89E091720509
:1019A000F09173058689891720F481E08093FA0409
:1019B00001C080E0DF91CF911F910F910895209198
:1019C000F904FC0120832091FE043091FF0432834E
:1019D000218308950FB6F8940F924091FE04509120
:1019E000FF04DB012D913C912F3FBFEF3B0719F125
:1019F000DC01FC91E091F904FE1739F01196ED91AC
:101A0000FC9112974E175F07C0F4DC011196ED911F
:101A1000FC911297DA01AE1BBF0BA217B30778F443
:101A2000DB01E41BF50B2E0F3F1F2D933C930E940F
:101A3000DF0C80E005C080E003C081E001C081E0F0
:101A40000F900FBE089581E08093FA0408950F93DC
:101A50001F93CF93DF93FC01892B09F455C026898E
:101A6000A0917205B091730556968C91281708F0D5
:101A70004BC084859585992364F0A0917205B0913F
:101A8000730556963C9187E090E0831B91099587FA
:101A900084878285938530E0A901440F551F440F48
:101AA000551F440F551F240F351F2D5C3A4F8217C9
:101AB000930719F58F01EF012296CE010E94490488
:101AC000E0917205F09173058689F801868B9091FB
:101AD000FD04981710F48093FD0490E09C01220F00
:101AE000331F220F331F220F331F820F931FBE019C
:101AF0008D5C9A4F0E94F70307C0A0917205B091C8
:101B0000730556968C91868BDF91CF911F910F9123
:101B100008950F931F93CF93DF93FC01892B79F1E5
:101B200082A1815082A3268991A1291751F18111A7
:101B30002AC0EF018F010E5F1F4FC8010E944904A8
:101B400089A18E8B27E030E0281B31093D872C8747
:101B50009091FD04981710F48093FD0490E09C018F
:101B6000220F331F220F331F220F331F820F931FA9
:101B7000B8018D5C9A4F0E94F70381E005C080E0B8
:101B800003C080E001C080E0DF91CF911F910F91F1
:101B900008958091720590917305892B39F0E09139
:101BA0007205F091730582A18F5F82A38091720507
:101BB0009091730508950F931F93CF93DF9300D0F7
:101BC00000D0CDB7DEB7082F84E0898385E08A8313
:101BD00086E08B8387E08C8310E014C0402F50E0B8
:101BE000012E02C0559547950A94E2F74170E1E055
:101BF000F0E0EC0FFD1FE10FF11D608180E00E941D
:101C0000F70E1F5F143050F30F900F900F900F904E
:101C1000DF91CF911F910F91089541E062E081E043
:101C20000E94F70E8FE39FE10197F1F700C00000DB
:101C300040E062E081E00E94F70E0895CF93C82F44
:101C400041E060E081E00E94F70E40E061E081E069
:101C50000E94F70E8C2F82958F700E94DB0D0E94E0
:101C60000D0E8C2F0E94DB0D0E940D0ECF9108955A
:101C7000CF93C82F40E060E081E00E94F70E40E083
:101C800061E081E00E94F70E8C2F82958F700E9498
:101C9000DB0D0E940D0E8C2F0E94DB0D0E940D0E9D
:101CA000CF9108952FEF83EF91E021508040904035
:101CB000E1F700C0000082E00E94DB0D0E940D0EE3
:101CC00082E00E94DB0D0E940D0E88E00E94DB0D79
:101CD0000E940D0E8CE00E94380E81E00E94380EAA
:101CE00008950F931F93CF938C01C0E003C00E940F
:101CF0001E0ECF5FF801EC0FF11D80818111F7CF2F
:101D0000CF911F910F91089590E4699F800D112448
:101D100080680E94380E08951F93CF93DF93CDB74C
:101D2000DEB72A970FB6F894DEBF0FBECDBF6115A0
:101D3000710581059105D1F480E30E941E0E2CC02F
:101D40002AE030E040E050E00E946411E1E0F0E081
:101D5000EC0FFD1FE10FF11D17FDFA95605D60832B
:101D6000622F732F842F952F1F5F01C010E0611524
:101D700071058105910521F711500CC0E1E0F0E0FB
:101D8000EC0FFD1FE10FF11D17FDFA9580810E94F8
:101D90001E0E1150112394F72A960FB6F894DEBF49
:101DA0000FBECDBFDF91CF911F91089587B18F777F
:101DB00087B987B1806487B986B1887F86B986B1D3
:101DC000876086B986B1806886B9089597B1907E9C
:101DD00097B997B1892B87B986B1806486B9349B4E
:101DE000FECF86B1806186B984B195B10895423045
:101DF00008F06FC04130A1F5813089F028F08230C1
:101E0000C9F0833011F108952BB381E090E002C056
:101E1000880F991F6A95E2F7822B8BBB089528B330
:101E200081E090E002C0880F991F6A95E2F7822B4B
:101E300088BB089525B381E090E002C0880F991F08
:101E40006A95E2F7822B85BB089522B381E090E08A
:101E500002C0880F991F6A95E2F7822B82BB089512
:101E6000411137C0813091F028F08230D9F08330B1
:101E700029F108952BB381E090E002C0880F991FEB
:101E80006A95E2F7809582238BBB089528B381E0A1
:101E900090E002C0880F991F6A95E2F7809582232F
:101EA00088BB089525B381E090E002C0880F991F98
:101EB0006A95E2F78095822385BB089522B381E07D
:101EC00090E002C0880F991F6A95E2F780958223FF
:101ED00082BB0895813041F028F0823039F08330A0
:101EE00039F008956ABB089567BB089564BB0895EF
:101EF00061BB08958FB780688FBF089593B79860CE
:101F000093BF93B7906493BF93B7906293BF93B717
:101F10009F7E93BF93B7987F93BF93B7936093BF10
:101F2000682F70E080E090E00E942E1023E333E3FE
:101F300043E250E40E9497100E94FD0F6CBF089589
:101F40001F920F920FB60F9211242F933F934F932E
:101F50005F936F937F938F939F93AF93BF93EF9311
:101F6000FF93E0917405F09175050995FF91EF914C
:101F7000BF91AF919F918F917F916F915F914F91A1
:101F80003F912F910F900FBE0F901F9018951F92A9
:101F90000F920FB60F9211242F933F934F935F939D
:101FA0006F937F938F939F93AF93BF93EF93FF9321
:101FB000E0917605F09177050995FF91EF91BF913A
:101FC000AF919F918F917F916F915F914F913F91D1
:101FD0002F910F900FBE0F901F90189586E880BD2F
:101FE00087E689B98AB188608AB98AB180618AB97D
:101FF00008955F9BFECF8CB108950E94711088F008
:102000009F5798F0B92F9927B751B0F0E1F0660FBC
:10201000771F881F991F1AF0BA95C9F714C0B130FD
:1020200091F00E948B10B1E008950C948B10672FF3
:10203000782F8827B85F39F0B93FCCF3869577952C
:102040006795B395D9F73EF4909580957095619515
:102050007F4F8F4F9F4F0895E89409C097FB3EF440
:1020600090958095709561957F4F8F4F9F4F9923E5
:10207000A9F0F92F96E9BB279395F6958795779563
:102080006795B795F111F8CFFAF4BB0F11F460FF23
:102090001BC06F5F7F4F8F4F9F4F16C0882311F07B
:1020A00096E911C0772321F09EE8872F762F05C08F
:1020B000662371F096E8862F70E060E02AF09A952A
:1020C000660F771F881FDAF7880F9695879597F91F
:1020D000089557FD9058440F551F59F05F3F71F018
:1020E0004795880F97FB991F61F09F3F79F087957F
:1020F0000895121613061406551FF2CF4695F1DF08
:1021000008C0161617061806991FF1CF8695710597
:10211000610508940895E894BB2766277727CB01CB
:1021200097F908950E94041108F48FEF08950E9412
:10213000AA100C943F110E94311138F00E943811FE
:1021400020F0952311F00C9428110C942E111124D9
:102150000C948C100E94691070F3959FC1F3950F39
:1021600050E0551F629FF001729FBB27F00DB11D1B
:10217000639FAA27F00DB11DAA1F649F6627B00DAB
:10218000A11D661F829F2227B00DA11D621F739F94
:10219000B00DA11D621F839FA00D611D221F749FA2
:1021A0003327A00D611D231F849F600D211D822FE9
:1021B000762F6A2F11249F5750409AF0F1F0882310
:1021C0004AF0EE0FFF1FBB1F661F771F881F91503D
:1021D0005040A9F79E3F510580F00C9428110C94B3
:1021E0008C105F3FE4F3983ED4F38695779567951E
:1021F000B795F795E7959F5FC1F7FE2B880F911D67
:102200009695879597F90895990F0008550FAA0B91
:10221000E0E8FEEF16161706E807F907C0F01216F9
:102220001306E407F50798F0621B730B840B950BFC
:1022300039F40A2661F0232B242B252B21F4089551
:102240000A2609F4A140A6958FEF811D811D0895EE
:1022500097F99F6780E870E060E008959FEF80EC59
:10226000089500240A9416161706180609060895FC
:1022700000240A9412161306140605060895092E62
:102280000394000C11F4882352F0BB0F40F4BF2BD1
:1022900011F460FF04C06F5F7F4F8F4F9F4F089511
:1022A000AA1BBB1B51E107C0AA1FBB1FA617B7077C
:1022B00010F0A61BB70B881F991F5A95A9F7809598
:1022C0009095BC01CD010895A1E21A2EAA1BBB1B5B
:1022D000FD010DC0AA1FBB1FEE1FFF1FA217B307F2
:1022E000E407F50720F0A21BB30BE40BF50B661F08
:1022F000771F881F991F1A9469F7609570958095CC
:1023000090959B01AC01BD01CF010895FB01DC015B
:1023100004C08D910190801921F441505040C8F7BC
:10232000881B990B0895FB01DC0102C001900D92FE
:0C23300041505040D8F70895F894FFCFBA
:10233C0034383632E70354454D50200057454C4352
:10234C004F4D4520200057524F4E4720504153537C
:10235C00574F5244210020202020202020202020D4
:10236C002020202020004E4F204C414D5073004F18
:10237C004E45204C414D500054574F204C414D5030
:10238C00002046414E2000252000252020004C4DE9
:10239C0033350053637265656E005465726D696EFA
:1023AC00616C0046414E004C44520048454C4C4F29
:1023BC0020414244554C4C414800454E5445522016
:1023CC0050415353574F5244210049444C4500004F
:00000001FF
